S0080000000048445219
S3250000000001020000B203000096040000000001020000B20300009604000000000102000033
S32500000020B203000096040000000001020000B203000096040000000001020000B203000061
S3250000004096040000000001020000B203000096040000000001020000B2030000960400005C
S32500000060000001020000B203000096040000000001020000B20300009604000000000102D3
S325000000800000B203000096040000000001020000B203000096040000000001020000B20301
S325000000A0000096040000000001020000B203000096040000000001020000B20300009604FC
S325000000C00000000001020000B203000096040000000001020000B203000096040000000076
S325000000E001020000B203000096040000000001020000B2030000960400000000010200FF54
S307000001000000F7
S5030009F3
S70500000000FA
